:020000040800F2
:1000000020080020F1010008135100089D49000854
:1000100011510008E90400083563000800000000E1
:100020000000000000000000000000007D530008F8
:10003000B506000800000000155100087F530008B5
:100040000B0200080B0200080B0200080B0200085C
:100050000B0200080B0200080B0200080B0200084C
:100060000B0200080B0200080B020008F90400084C
:100070000B0200080B0200080B0200080B0200082C
:100080000B0200080B020008E90300080B0200083D
:100090000B020008BD0600080B0200080B02000856
:1000A0001D540008355400080B02000829540008AC
:1000B0000B0200080B0200080B0200080B020008EC
:1000C0000B0200080B0200080B0200080B020008DC
:1000D0000B020008296300080B0200080B0200084D
:1000E0000B0200080B0200080B0200080B020008BC
:1000F0000B0200080B0200080B0200080B020008AC
:100100000B0200080B0200080B0200080B0200089B
:100110000B0200080B0200080B0200080B0200088B
:100120000B0200080B0200080B0200080B0200087B
:100130000B0200080B0200080B0200080B0200086B
:10014000ED0400080B0200080B0200080B02000877
:100150000B0200080B0200080B0200080B0200084B
:100160000B0200080B0200080B0200080B0200083B
:100170000B0200080B0200080B0200080B0200082B
:100180000B0200080B0200080B0200080B0200081B
:100190000B020008000000000B0200080B02000820
:1001A0000B0200080B0200080B0200080B020008FB
:1001B0000B0200080B0200080B0200080B020008EB
:1001C0000B0200080B0200080B0200080B020008DB
:1001D0000B0200080B020008DFF810D000F0A4F8B2
:1001E00000480047B9660008AFF3008020080020EF
:1001F0000648804706480047FEE7FEE7FEE7FEE7C1
:10020000FEE7FEE7FEE7FEE7FEE7FEE70D54000827
:10021000D90100082DE9F05F0546002092469B4673
:1002200088460646814640241BE02846414647460C
:10023000224600F069F853465A46C01A914110D33D
:1002400011461846224600F050F82D1A67EB0108B7
:100250004F4622460120002100F047F817EB000925
:100260004E41201EA4F10104DFDC484631462A46F7
:100270004346BDE8F09F40EA01039B0703D009E035
:1002800008C9121F08C0042AFAD203E011F8013B82
:1002900000F8013B521EF9D27047D2B201E000F8DB
:1002A000012B491EFBD270470022F6E710B513461A
:1002B0000A4604461946FFF7F0FF204610BD30B548
:1002C0000B46014600202022012409E021FA02F514
:1002D0009D4205D303FA02F5491B04FA02F52844AE
:1002E000151EA2F10102F1DC30BD202A04DB203A08
:1002F00000FA02F1002070479140C2F1200320FA79
:1003000003F3194390407047202A04DB203A21FA76
:1003100002F00021704721FA02F3D040C2F120021E
:100320009140084319467047064C074D06E0E068C7
:1003300040F0010394E8070098471034AC42F6D32C
:10034000FFF74EFFB06A0008D06A000870B5134C82
:1003500000220821204602F0F8FB0122104E55022F
:100360002946304602F0F1FB142006F05DF9012227
:100370000821204602F0E9FB0A2006F04FF900228E
:100380002946304602F0E1FB012006F047F92946F4
:100390003046BDE87040012202F0D7BB0010004893
:1003A0000014004810B50F4C90B1012817D0022856
:1003B00017D101221021204602F0C7FB0122202183
:1003C000204602F0C2FBBDE81040012006F026B92D
:1003D00000221021204602F0B8FB0022EFE70022A5
:1003E000E8E710BD0004004810B5044801F012F918
:1003F000BDE81040024801F00DB90000A400002043
:100400001001002070B50446006881688268C1F35D
:10041000400112F0010F28D039BB816801F00D01B5
:10042000012914D18168124A1140891C8160216818
:100430000320086002F08EFB054612E002F08AFB02
:10044000401B02280DD920688068C00709D0E06DE4
:1004500040F01000E065206E40F0010020660120B1
:1004600070BD20688068C007E8D1002070BD000022
:10047000C0FFFF7F70B504460068816811F0010F6E
:100480002DD18168174A11421AD18168D54329407C
:10049000491C816002F05EFB06461BE0816811F09A
:1004A000010F03D181682940491C816002F052FB91
:1004B000801B02280ED920680068C043C00709D0FD
:1004C000E06D40F01000E065206E40F00100206615
:1004D000012070BD20680168C943C907DED1002032
:1004E00070BD00003F000080FEE70000014801F001
:1004F00013BC00007C010020014801F038BF00005F
:10050000BC0300200D4902688A4201D20C4901E077
:100510000B492031D2B21423083AB2FBF3F2436CF8
:1005200002F01F0223F0030319448164044980315F
:10053000C164012191400165704700000804024038
:10054000000802400179074A02EB81024265054A30
:100550004432491E826501F01F0201219140C165AC
:1005600070470000FC08024030B5D0E913456560D3
:10057000446D14B1D0E91645656090F8444004F02C
:100580001F050124AC40056C6C60046863608368DF
:10059000102B036803D099600068C26030BD9A6078
:1005A0000068C16030BD000010B54FF4084421461A
:1005B00005A005F043FF204606F024FA06F0F2F904
:1005C00000F00F0010BD0000636F6D6D616E642060
:1005D0003D2025640D0A00002DE9F04105460E4638
:1005E00017461C46DDF8188006F038F84FF4FA700C
:1005F00006F014F8A8B2B1B240EA154041EA16413B
:100600000843B9B2084340F48055284606F0FAF989
:10061000294616A005F012FF4FF4104006F0F2F93B
:1006200006F0C0F9014615A005F008FF44EA17409E
:1006300048EA144210434FEA184140EA811080B260
:1006400040F4C054204606F0DDF9214610A005F024
:10065000F5FE4FF4184006F0D5F906F0A3F9BDE811
:10066000F04101460EA005F0E9BE000077636F6E11
:1006700066696731203D2025640D0A007265677642
:10068000616C756531203D2025640D0A0000000075
:1006900077636F6E66696732203D2025640D0A001E
:1006A00072656776616C756532203D2025640D0AA0
:1006B00000000000704772B6FEE70000014801F03C
:1006C0005FBF0000C8010020F8B500260446009670
:1006D00090F858000D4601280BD0012084F85800EE
:1006E0002046FFF78FFE0100E06D04D040F01000BF
:1006F0002AE00220F8BD20F4885040F00200E065B6
:1007000020688268134B1A4005F080431A4342F078
:1007100000428260104A20680EE0009B5B1C009340
:10072000934209D3E06D20F0020040F01000E06534
:1007300084F858600120F8BD8368DB0FEDD1E06DCF
:1007400020F0020040F00100E06584F8586008469F
:10075000F8BD0000C0FFFF3F02DE0400704700004C
:100760002DE9F84F4FF000090446CDF800900D46F2
:1007700094F85820DFF8EC8361694F464846012A17
:100780000AD00126F84A84F8586041B1296A012943
:1007900005D0A36EEBB129E00220BDE8F88F6868B0
:1007A000092838D1A96A4FF4785041B12B6801F07B
:1007B0007C0100EA53400843E96A084302E02968E3
:1007C00000EA51402368D96C11400143D964606646
:1007D00021E0C4E91971A96A286A31B101F07C01EC
:1007E000401E0843E96A084300E0401E29682B794F
:1007F000C1F3846103F01F0399400143A06E401EC2
:10080000A066636E43EA0103636604D12168C86C85
:1008100010401843C864206804F0D1F858B995F81E
:10082000250098B12068C16895F8262021F4401170
:1008300041EA4251C160206804F0C9F8824620684C
:1008400004F0BDF85AEA00000DD0FCE095F826004F
:1008500095F82410400540EA01512068C26822F44E
:1008600040121143E6E7A86A30B1E86A20B195F872
:10087000250001285ED003E095F82500012804D06A
:100880002068C16821F0007103E02068C16841F070
:100890000071C16095F83000012852D020680169CC
:1008A00021F002010161AA6829682068B2F1004FB5
:1008B00038D004F0A7F82068416921F00041416177
:1008C00020686969C268C2F3C102520091402A6976
:1008D000042A45D000EB82002B68026EDFF88CC240
:1008E00003F0F84302EA0C020B431A4342F00041C2
:1008F000016620682A69A96900EB8200026E22F075
:1009000080720A430266297F22682869012924D05F
:100910005FF0000102EB8000026E22F000720A43D9
:10092000026690E0002204F06DF82068416941F011
:100930000041C4E7E06D40F02000E0654FF00109A0
:10094000A8E7D5E90D01084321680A6922F4FF727E
:1009500042F0020210430861A5E74FF00071D9E7A9
:10096000002104F022F8400320684FF0000172D00B
:1009700004F01BF890FAA0F0B0FA80F12868420366
:100980006ED090FAA0F0B0FA80F0814204D100223B
:100990001146206804F04DF80121206804F005F8A4
:1009A000400320684FF001015DD003F0FEFF90FA94
:1009B000A0F0B0FA80F12868420359D090FAA0F074
:1009C000B0FA80F0814204D100220121206804F0B5
:1009D00030F80221206803F0E8FF400320684FF060
:1009E000020148D003F0E1FF90FAA0F0B0FA80F1E4
:1009F0002868420344D090FAA0F0B0FA80F0814217
:100A000004D100220221206804F013F80321206899
:100A100003F0CBFF400320684FF0030133D003F015
:100A2000C4FF90FAA0F0B0FA80F1286842032FD0FA
:100A300090FAA0F0B0FA80F0814204D100220321A4
:100A4000206803F0F6FF2068816811F0010F22D0C2
:100A5000B5E000E004E003F0A8FFC0F384618DE797
:100A6000C0F3846091E703F0A0FFC0F38461A2E7C4
:100A7000C0F38460A6E703F098FFC0F38461B7E792
:100A8000C0F38460BBE703F090FFC0F38461CCE760
:100A9000C0F38460D0E72A7B296850F8B03FC1F3E7
:100AA000120C23EA0C0302F0180C314A22FA0CF261
:100AB0000A4013430360E96841457DD1286841033A
:100AC0001BD090FAA0F1B1FA81F1491C01F01F018D
:100AD00009294FEA403131D8002911D090FAA0F10C
:100AE000B1FA81F101F1010101F01F0106FA01F6ED
:100AF00009D100BFC0F3846109E0C0F38461E4E779
:100B0000C0F38461EEE790FAA0F1B1FA81F101F14E
:100B1000010101F01F0146EA816102D1C0F3846046
:100B200003E090FAA0F0B0FA80F000F1010000F0CC
:100B30001F0000EB400041EA00513AE000290ED0CE
:100B400090FAA0F1B1FA81F101F1010101F01F0168
:100B500006FA01F60ED100BFC0F384610EE0C0F3C7
:100B60008461F1E700007F400040100400F0FF03C3
:100B7000FFFF070090FAA0F1B1FA81F101F1010144
:100B800001F01F0146EA816102D1C0F3846003E0F5
:100B900090FAA0F0B0FA80F000F1010000F01F0020
:100BA0003A4A00EB400002EB005041EA000141F0FC
:100BB0000071AA68206800E001E003F023FF3448D8
:100BC0002B6803425ED022684FF0A04C3148324E71
:100BD000324D624501D0AA4201D1014600E03146C2
:100BE0008968DFF8BC8001F0E071434503D0DFF88D
:100BF000B480434520D15FEA01281DD4624505D069
:100C0000294B9A423ED1AA4200D0304641F400011D
:100C1000826822F0E0720A43826024482449006816
:100C2000B0FBF1F0801C00EB4000800000E0401EB3
:100C300000900028FBD125E0DFF8788043450FD1F4
:100C40005FEAC1180CD4AA4202D11B4B9A4219D0B8
:100C5000624502D0AA4200D0304641F080710CE0DB
:100C6000DFF8588043450DD14B020BD4AA4209D07E
:100C7000624500D0304641F48001826822F0E07283
:100C80000A43826084F85870484686E5000020FEDA
:100C900000000880000300500007005000010050D1
:100CA000000021C31000C090000600505C0000202E
:100CB000400D0300000052C700050050000084CB27
:100CC0002DE9F041374988426AD1384936480D68E4
:100CD000014606788C88CB880A8932490968E6B3D0
:100CE00051F8806FB6B2341B00EE104A4681F8EE20
:100CF000C00A9FED2F0A20EE801A80ED071AD5F862
:100D00008040A4B2E31A00EE903A8481F8EEE00A43
:100D100060EE800AC0ED080A496889B2C181891A6B
:100D200001EE901A1C22F8EEE11A21EE800A80ED05
:100D3000090A2048014680ED041AC0ED050A80ED3D
:100D4000060A19482830FFF796FABDE8F04116491F
:100D500020222831184803F0D3BD4678761CF7B21C
:100D6000477051F8806F4681D5F880508581496879
:100D7000C1813444A4B22B4484809BB21144C3800B
:100D80008AB202810A2F0BD3012101700A21B4FB20
:100D9000F1F4B3FBF1F3B2FBF1F18480C380018184
:100DA000BDE8F081A4000020040000201001002014
:100DB00066669E3C640000202C0300207047000003
:100DC0002DE9F041044600684FF0A0453E4FA8428F
:100DD00001D0B84201D13D4900E03D49896801F0A8
:100DE0001F0603F0ECFD08BB2168C868C96C00F061
:100DF000004011F4C07F00D190B194F85800012850
:100E000014D0012084F858002046FFF733FB01007E
:100E10004FF000020CD084F858200846BDE8F0815D
:100E2000E06D40F02000E0650120F7E70220F5E7E3
:100E3000E06DC00504D5206E20F00800206600E0BB
:100E40002266E06D42F20103984340F48050E06571
:100E50002068204BDFF880C0B84201D1AE4604E0E4
:100E6000984201D1E64600E08646864500D02EB97C
:100E7000D4F85CE02EF4801EC4F85CE04FF0600E05
:100E8000C0F800E084F858202068B84204D09842A6
:100E900001D1654600E00546854209D046B1062EDF
:100EA00006D0072E04D0E06D40F48010E065B4E772
:100EB000C26812F0007FB0D18268084B1A4042F03D
:100EC00008028260A9E70000000100500003005002
:100ED000000700500005005000040050C0FFFF7FD5
:100EE0002DE9F041044600684FF0A0454C4FA84260
:100EF00001D0B84201D14B4900E04B49896801F06B
:100F00001F0603F05CFD08BB2168C868C96C00F0CF
:100F1000004011F4C07F00D190B194F8580001282E
:100F200014D0012084F858002046FFF7A3FA0100EE
:100F30004FF000020CD084F858200846BDE8F0813C
:100F4000E06D40F02000E0650120F7E70220F5E7C2
:100F5000E06DC00504D5206E20F00800206600E09A
:100F60002266E06D42F20103984340F48050E06550
:100F700020682E4BDFF8B8C0B84201D1AE4604E07D
:100F8000984201D1E64600E08646864500D02EB95B
:100F9000D4F85CE02EF4801EC4F85CE04FF0600EE4
:100FA000C0F800E084F858202068C268920203D597
:100FB000426842F480624260A06908282068426862
:100FC00007D022F0400242602068426842F02002CE
:100FD00006E022F0200242602068426842F04002AF
:100FE00042602068B84204D0984201D1654600E0D2
:100FF0000546854209D046B1062E06D0072E04D0FC
:10100000E06D40F48010E06597E7C26812F0007F61
:1010100093D18268074B1A4042F0080282608CE745
:101020000001005000030050000700500005005070
:1010300000040050C0FFFF7F704770472DE9F04F5C
:10104000044690F858009BB00F464FF0000B012863
:1010500012D0012084F858000026179618962068B0
:101060004FF0A048DFF81C91DFF81CA1474D404528
:1010700006D12846009508E002201BB0BDE8F08F9D
:1010800048450AD15046CDF800A003F0A0FC0090DE
:10109000206803F09CFC40B109E0E06D40F02000C6
:1010A000E06584F858600120E7E7009850B1E06DF2
:1010B00040F02000E0654FF0010B00BF84F858605D
:1010C0005846DAE720684146884201D0A84201D15B
:1010D0002F4800E02F48D7F800C02F4B40F61F7272
:1010E000BCF1000F2DD0D0F808C094F838802CF453
:1010F000604C4CEA483CD7F804804CEA080CC0F835
:1011000008C0D4F800C08C4501D0AC4504D1896832
:10111000AB6801F0010109E0D9F80810DAF80850CD
:1011200001F0010105F001059B68294303F001036B
:101130001943C3D1BB683968194383689343194382
:101140001DE0876827F46047876027688F4201D0D9
:10115000AF4204D18968AB6801F0010109E0D9F818
:101160000810DAF8085001F0010105F001059B684C
:10117000294303F001031943A0D1816891438160A1
:101180009CE70000000400500005005000010050E2
:101190000003005000070050000600502DE9F84FF2
:1011A00000270446009790F85800DFF81C840D468D
:1011B000B946012811D0012684F85860206803F050
:1011C00002FC60B1E06D40F02000E0655FF00107D7
:1011D00084F858903846BDE8F88F0220FBE7D5E93F
:1011E00000210C23206803EA91131844036B01F0DB
:1011F0001F014FF01F0C0CFA01FCC2F3846223EABA
:101200000C038A4013430363206803F0DCFB82462F
:10121000206803F0D0FB5AEA00003CD1AA68296894
:101220002068B2F1004F37D003F0DDFB2068416940
:1012300021F00041416120686969C268C2F3C102BE
:10124000520091402A69042A31D000EB82002B68B9
:10125000026EDFF878C303F0F84302EA0C020B4396
:101260001A4342F00041016622682869A96902EB2D
:101270008000026E22F080720A430266297F226893
:101280002869012910D0002102EB8000026E22F0B3
:1012900000720A4302667DE0002203F0A4FB20688E
:1012A000416941F00041C5E74FF00071ECE70021D2
:1012B00003F075FB400320684FF0000172D003F08B
:1012C0006EFB90FAA0F0B0FA80F1286842036ED06D
:1012D00090FAA0F0B0FA80F0814204D100221146C9
:1012E000206803F09EFB0121206803F058FB4003B7
:1012F00020684FF001015DD003F051FB90FAA0F09F
:10130000B0FA80F12868420359D090FAA0F0B0FA00
:1013100080F0814204D100220121206803F081FB8A
:101320000221206803F03BFB400320684FF00201DC
:1013300048D003F034FB90FAA0F0B0FA80F12868AE
:10134000420344D090FAA0F0B0FA80F0814204D178
:1013500000220221206803F064FB0321206803F0CF
:101360001EFB400320684FF0030133D003F017FB4E
:1013700090FAA0F0B0FA80F1286842032FD090FADA
:10138000A0F0B0FA80F0814204D10022032120684D
:1013900003F047FB2068816811F0010F22D0ACE018
:1013A00000E004E003F0FBFAC0F384618DE7C0F3D2
:1013B000846091E703F0F3FAC0F38461A2E7C0F31D
:1013C0008460A6E703F0EBFAC0F38461B7E7C0F3EB
:1013D0008460BBE703F0E3FAC0F38461CCE7C0F3B9
:1013E0008460D0E72A7B296850F8B03FC1F3120C23
:1013F00023EA0C0302F0180C754A22FA0CF20A4098
:1014000013430360E968414577D1286841031CD044
:1014100090FAA0F1B1FA81F1491C01F01F010929EC
:101420004FEA403132D8002912D000BF90FAA0F123
:10143000B1FA81F101F1010101F01F0106FA01F693
:1014400009D100BFC0F3846109E0C0F38461E3E720
:10145000C0F38461EEE790FAA0F1B1FA81F101F1F5
:10146000010101F01F0146EA816102D1C0F38460ED
:1014700003E090FAA0F0B0FA80F000F1010000F073
:101480001F0000EB400041EA005132E000290ED07D
:1014900090FAA0F1B1FA81F101F1010101F01F010F
:1014A00006FA01F606D100BFC0F3846106E0C0F37E
:1014B0008461F1E790FAA0F1B1FA81F101F1010143
:1014C00001F01F0146EA816102D1C0F3846003E0AC
:1014D00090FAA0F0B0FA80F000F1010000F01F00D7
:1014E0003C4A00EB400002EB005041EA000141F0B1
:1014F0000071AA68206803F076FA37482B68034227
:101500003FF466AE21684FF0A04C3448344E354D60
:10151000614501D0A94201D1024600E032469268FD
:10152000DFF8C48002F0E072434503D0DFF8BC80EE
:10153000434521D15FEA02281ED4614506D02C4BD9
:1015400099427FF445AEA94200D0304642F40001F2
:10155000826822F0E0720A438260264826490068C9
:10156000B0FBF1F0401C00EB4000800000E0401EAA
:1015700000900028FBD12BE6DFF8808043450FD197
:101580005FEAC2180CD4A94202D11D4B9942F2D095
:10159000614502D0A94200D0304642F080710CE093
:1015A000DFF860804345E6D15302E4D4A942E2D09B
:1015B000614500D0304642F48001826822F0E0723A
:1015C0000A43826004E6000000007F4000F0FF0351
:1015D000FFFF0700000020FE00000880000300500D
:1015E0000007005000010050000021C31000C0900F
:1015F000000600505C000020400D0300000052C7B0
:1016000000050050000084CB704770470068006CF4
:10161000704700002DE9F84F0446006806684568E9
:101620004FF0A048DFF89092404501D0484501D1E5
:10163000A24800E0A248806800F01F07B0070ED55E
:10164000A8070CD5E06DC00603D4E06D40F400603F
:10165000E0652046FFF782F8216802200860DFF885
:1016600064B2DFF864A2700701D5680703D43007BD
:101670003FD528073DD5E06DC00603D4E06D40F4AA
:101680000070E065206803F0A6F960B32068484563
:1016900001D1424604E0584501D1524600E00246DD
:1016A000824208D03FB1052F05D0092F03D048450D
:1016B00003D1414606E0C16805E0584501D15146D5
:1016C00000E00146C96889040DD4016809070AD5FC
:1016D00003F079F958B3E06D40F01000E065206E3A
:1016E00040F0010020662046FFF78EFF21680C20A5
:1016F0000860B00601D5A80603D470065FD5680659
:101700005DD5E06DC00603D4E06D40F40050E065A7
:101710002068C16C11F4C07F1AD00021009103F041
:101720005AF902462068484514D1434617E020681C
:10173000416821F00C014160E06D20F48070E065AB
:10174000E06DC004CFD4E06D40F00100E065CAE771
:101750000121E3E7584501D1534600E003468342A7
:1017600008D03FB1062F05D0072F03D0484503D13D
:10177000414606E0C16805E0584501D1514600E008
:101780000146C968009BA3B18B0102D58AB18A04C6
:101790000FD4026852060CD589020AD403F00BF963
:1017A000F0B3E06D40F01000E065206E40F0010005
:1017B00020662046FFF784FA216860200860300622
:1017C0000BD5280609D5E06D40F48030E065204651
:1017D00000F098F9216880200860F0050CD5E80534
:1017E0000AD5E06D40F40030E0652046FFF724FCA8
:1017F00021684FF480700860B0050CD5A8050AD5A3
:10180000E06D40F48020E0652046FFF716FC21687B
:101810004FF400700860F00631D5E8062FD500E0DF
:1018200009E0E06BE8B12068EFB3404501D04845DE
:1018300012D1224811E02068416821F06001416026
:10184000E06D20F48050E065E06DC005B1D4E06D3E
:1018500040F00100E065ACE71948806800F46040A2
:1018600050B1E06D40F48060E065206E40F0020011
:1018700020662046FFF7C9FE216810200860700529
:1018800017D5680515D5E06D40F48040E065206E01
:1018900040F00800206621684FF480600860204610
:1018A000BDE8F84F00E001E0FFF788BAC068C00764
:1018B000D6E7BDE8F88F000000010050000300509B
:1018C000000700500005005000040050F8B54FF02C
:1018D000000504002E46009502D0E06D10B107E02F
:1018E0000120F8BD204600F00FF9266684F8586004
:1018F00020688168C1F3407119B18168754A11404F
:10190000816020688168C1F3007189B98168724A79
:10191000114041F080518160704871490068B0FB0E
:10192000F1F04000801C00E0401E00900028FBD138
:1019300020688168C1F3007141B9E16D41F0100187
:10194000E165216E41F001012166012503F03BF8BC
:10195000E16DC90600D430B1E06D40F01000E065E3
:1019600001252846F8BDE06D20F4807040F00200AB
:10197000E0652068816811F0010F27D14FF0A04386
:10198000584A984201D0904204D19968966801F073
:1019900001010AE054498968544E01F00101B6681A
:1019A00006F001063143524EB66806F00106314397
:1019B0000CD1984201D0904201D14E4800E04E48EF
:1019C0006168826822F47C120A438260E168E06BFD
:1019D000627F0843A16841EA4231084394F8241029
:1019E00040EA0140012904D1218D444A02EB4141E2
:1019F0000843E16A29B101F47871226B014342EA9C
:101A000001002168CA683E4B1A400243CA60206840
:101A10000169626B21F0406111430161206802F0AD
:101A2000D2FF0646206802F0C6FF30432ED1207F49
:101A300094F83810800340EA41012068C26844F2FB
:101A400002039A430A43C2602069002820680169A2
:101A50000AD041F480310161206850F8C01F22692A
:101A60006FF30D01114307E021F48031016120681B
:101A700050F8C01F6FF30D01016094F84000012879
:101A80000CD02068016921F0010101616069012821
:101A90002068016B21F00F0111D013E0D4E911018E
:101AA0000843D4E913121143084321680A6940F23C
:101AB000FC739A43104340F001000861E6E7226A94
:101AC000521E11430163E06D20F0020040F001005E
:101AD000E06546E7C0FFFF5FC0FFFF7F5C000020BE
:101AE000400D0300000100500004005000050050AC
:101AF0000006005000030050000700500000FEFFE9
:101B00000740F0FF70470000F0B587B0044614218D
:101B10006846FEF7C9FB2E4B266800241A68032589
:101B20002C49521C4FF09040B6F1A04F06D02A4FDE
:101B3000BE424BD11A60012A29D030E01A60012A36
:101B400007D1CA6C42F40052CA64CA6C02F4005253
:101B50000592CA6C42F00102CA64CA6C02F001022A
:101B60000592CA6C42F00202CA64C96C029401F088
:101B7000020105910421CDE90015694600F0FCFE43
:101B80000220CDE9000569460294144814E0CA6CAD
:101B900042F40052CA64CA6C02F400520592CA6C44
:101BA00042F00102CA64C96C029401F0010105917E
:101BB0004121CDE90015694600F0DEFE0022114604
:101BC000122001F02DF8122001F01CF807B0F0BD32
:101BD0004C000020001002400001005000040048AA
:101BE0002DE9F041044600684FF0A045444FA8425B
:101BF00001D0B84201D1434900E04349896801F06E
:101C00001F0602F0E0FE18B102210846BDE8F0818F
:101C100094F8580001280CD0012084F85800204680
:101C2000FEF728FC01004FF0000204D084F8582091
:101C3000EBE70220EAE7E06D40F60163984340F4E9
:101C40008070E0652068314BDFF8C4C0B84201D134
:101C5000AE4604E0984201D1E64600E0864686455D
:101C600000D02EB9D4F85CE02EF4801EC4F85CE0FD
:101C7000D4F85CE05FEACE4E06D5D4F860E02EF0F2
:101C8000060EC4F860E000E022664FF01C0EC0F8BB
:101C900000E084F858202068B84201D12A4604E0C8
:101CA000984201D1624600E0024682420ED06EB1F7
:101CB000052E0BD0092E09D0E26D42F48012E265A8
:101CC000B84213D0984210D165460FE0C268920125
:101CD00005D5E26D22F4005242F48052E26582683A
:101CE0000C4B1A40121D82608FE70546E8688001A0
:101CF0008BD5E06D20F4005040F48050E06584E71F
:101D00000001005000030050000700500005005083
:101D100000040050C0FFFF7F10B51D4B1C49026836
:101D200014338A4202D14FF400111EE01849091DF4
:101D30008A4202D14FF4800117E0154908318A42E6
:101D400001D1890611E012490C318A4202D14FF0CB
:101D500080410AE00E4910318A4201D1C90604E0EF
:101D60009A4201D1012100E002219A4203D0084B9E
:101D700018339A4201D1074A01E0064A203A136813
:101D800031EA030302D1116000F054F910BD0000E4
:101D900000020140340401402DE9F84F04004FF0E7
:101DA00000000546009003D021680968002901DA87
:101DB0000125FCE0617F21B920772062204600F0F8
:101DC0000BF921680868E66800F40002D4E90130E4
:101DD0001843636933431843236918430B68754EEE
:101DE000334003430B60D4F800C0DCF8000000026D
:101DF0000DD562B9704871490068B0FBF1F000EB95
:101E00008000800000E0401E00900028FBD16C485C
:101E10006B4914308C4502D14FF400111EE0684923
:101E2000091D8C4502D14FF4800117E06449083147
:101E30008C4501D1890611E061490C318C4502D1F4
:101E40004FF080410AE05E4910318C4501D1C9064E
:101E500004E0844501D1012100E00221A269594B2F
:101E600092465FEA8278584E584AA3F10407A6F1D9
:101E7000040977D05FEACA6803F1040A06F1040B8B
:101E80000BD5844501D0944501D1D44600E0DC4611
:101E9000DCF8008048EA01080AE0844501D0944556
:101EA00001D1D44600E0DC46DCF8008028EA0108D5
:101EB000CCF8008094F818C0DFF818A15FEA8C68AD
:101EC000DFF80CC1D4F8008009D5804502D09045D8
:101ED00000D0D446DCF8008048EA010808E08045DC
:101EE00002D0904500D0D446DCF8008028EA0108F2
:101EF000CCF80080D4F800C0844501D0944504D1CA
:101F0000DFF8CCC00CF1080C03E0DFF8C8C00CF11E
:101F1000080CCCF8001094F818C05FEA8C7CD4F858
:101F200000C009D5844501D0944502D11E680E43F6
:101F300008E033680B4309E0844501D0944503D1A0
:101F40001E688E431E6002E033688B433360237E3D
:101F5000DB070ED02368834201D0934203D1386857
:101F600008430DE00EE0D9F800000843C9F800006E
:101F700019E02368834201D093420FD13868884327
:101F8000386010E0844501D0944503D11E688E432B
:101F90001E60EEE733688B433360EAE7D9F8002030
:101FA0008A43C9F80020607F08B90120607728467D
:101FB000BDE8F88F0F7E00FF5C000020400D03009D
:101FC00000020140240401400404014018020140C1
:101FD0002C0401400C04014010B586B004461421C5
:101FE0006846FEF761F91049206888421AD10F4807
:101FF000C16C41F00201C164C06C694600F002008E
:1020000005900220009003200190002002900848D3
:1020100000F0B2FC00221146402000F001FE4020FA
:1020200000F0F0FD06B010BD0002014000100240BB
:1020300000040048704700002DE9F047044640794D
:1020400090460D4601280BD04FF0010984F8059009
:1020500002202071A96808F01006042903D045E089
:102060000220BDE8F08700F075FD07465FEA080032
:102070004FF0030805D01CE000F06CFDC01B0128E8
:102080000FD82068406B0004F6D4012000F072FAEB
:102090002168686A086416E000F05CFDC01B012836
:1020A00007D9206940F00800206184F804800320EB
:1020B000D7E72068406B0028EEDB012000F05AFAD9
:1020C0002168686A48642068816C40F2FF32B2403F
:1020D0009143AA6AB240114381642068C16CFF2217
:1020E000B2409143EA6AB2401143C164E8690128F1
:1020F00008D12268916B1F20B0408143286AB0400C
:10210000084390632068C06B0721B1408843A969E8
:10211000012903D0022955D06969E9B300216B690F
:10212000AA681A430A434FF4807101FA06F39843F0
:102130002B79012B00D0002111434FF4007202FAD9
:1021400006F398436B79012B00D0002220F440471E
:10215000286842EA0108022836D00743216808FAB5
:1021600006F03843C863206801684FF48042B240EB
:10217000914301602268116840F6FE70B0408143CF
:10218000E868B0400843106020680168C022B2408F
:1021900091430160287B00E014E0297C2268C0F3B1
:1021A000830001F03C0140EA8110116E40F60F738C
:1021B000B3409943B0400143116684F80490002075
:1021C00060714EE70121AAE701F00AF9054988424A
:1021D00002D947F40047C1E703498842BED947F412
:1021E0008047BBE70068890900B4C40470B50400E7
:1021F00003D02079002510B105E0012070BD657184
:10220000204600F007F8022020712561012020718E
:10221000002070BD10B586B0044614216846FEF754
:1022200043F8174A2168174891421CD1C16C41F408
:102230008031C164C16C01F480310591C16C41F001
:102240000101C164C06C694600F0010005901020D6
:10225000009003200190002002904FF0904000F089
:102260008BFB06B010BD084A9142FAD1C16C41F413
:102270008021C164C06C00F480200590F1E700006B
:1022800000080050001002400010005010B590F8F7
:10229000253000210122022B03D00421C16301213A
:1022A00022E003681C6824F00E041C60836C1C6828
:1022B00024F480741C6003681C6824F001041C6012
:1022C00090F84430046C03F01F0302FA03F36360D8
:1022D000D0E913345C60436D33B11C6824F480741E
:1022E0001C60D0E916345C6080F82520002280F85C
:1022F0002420084610BD70B590F825200024012147
:102300002346022A07D00422C26380F8251080F8F1
:102310002430012429E00268156825F00E051560B7
:102320000268156825F001051560826C156825F4B2
:102330008075156090F84420056C02F01F0201FAC8
:1023400002F26A60D0E913255560426D32B115681A
:1023500025F480751560D0E91625556080F82510A4
:1023600080F82430816B01B18847204670BDF0B4FD
:10237000016C0C6801680D6890F8442002F01F069B
:10238000042202FA06F3234211D06B070FD50B6823
:102390009B0603D40B6823F004030B6090F84410F1
:1023A00001F01F018A40016C4A60016B1DE00223AD
:1023B00003FA06F727424FF0000C4FF0010218D045
:1023C000AF0716D50C68A40605D40C6824F00A04DF
:1023D0000C6080F8252090F8441001F01F018B401C
:1023E000016C4B6080F824C0C16A00291AD0F0BC8F
:1023F00008470823B340234214D02B0712D50B689B
:1024000023F00E030B6090F84410036C01F01F01E1
:1024100002FA01F15960C26380F8252080F824C0D7
:10242000416BE2E7F0BC704770B504000CD02B4A5A
:1024300021681420914209D2294A0A44B2FBF0F0E3
:102440008000606427480AE0012070BD234A5242A0
:102450000A44B2FBF0F08000606420480838206431
:10246000022084F825000A6847F6F0708243D4E918
:1024700002031843D4E904352B431843A3691843D6
:10248000E3691843236A1843104308602046FEF7A7
:1024900039F8A0680025B0F5804F00D16560A16CC7
:1024A00020790860D4E9130141606068401E032868
:1024B00008D82046FEF746F8606D0560D4E916019D
:1024C000416002E06565A565E565E563012084F886
:1024D000250084F82450002070BD0000080402404C
:1024E000F8FFFDBF0000024070B5044690F82400DC
:1024F000002501280CD0012084F8240094F82560E0
:102500000020012E06D084F824000225284670BD44
:10251000022070BD022684F82560E063206806680A
:1025200026F0010606602046FEF71EF8206B002804
:102530002068016802D041F00E0106E021F004019C
:1025400001602068016841F00A010160A06C016827
:10255000C90303D5016841F480710160606D18B151
:10256000016841F4807101602068016841F0010157
:102570000160CBE780B204F051B8704770477047F4
:102580002DE9F04704460068016D466D01F4E05105
:102590000E40016D476D01F007010F40016D426D66
:1025A00001F0380102EA0108016D456D01F4710185
:1025B0000D40016D426D01F4602102EA0109016DD7
:1025C000490607D5416D490604D5402101652046DD
:1025D000FFF7D5FF2068016DC9050DD5416DC9050F
:1025E0000AD5D0F8D820D0F8E01011404FF480720E
:1025F0000265204600F0BCF92EB120680665314620
:10260000204600F0B7F92FB120680765394620460B
:1026100000F0AAF9B8F1000005D02168086541462C
:10262000204600F0A2F92068016D890508D5416DAA
:10263000890505D54FF400710165204600F09BF92E
:102640002068016D09060CD5416D090609D5D0F841
:10265000D420D0F8DC10114080220265204600F022
:1026600088F92068016D890408D5416D890405D574
:102670004FF400510165204600F079F92068016DA2
:10268000090408D5416D090405D54FF400410165E1
:10269000204600F06BF92068016D490409D5416DB1
:1026A000490406D54FF480410165206E40F080005A
:1026B0002066B9F1000005D021680865494620462A
:1026C000FFF75CFF25B120680565206E2843206672
:1026D000206E002802D02046FFF74FFFBDE8F087AC
:1026E0002DE9F041040006D0DFF8F48194F85C0095
:1026F000002518B107E00120BDE8F08184F85D50A5
:10270000204600F0F9F82068816921F0100181610C
:1027100000F020FA0646032705E000BF00F01AFA91
:10272000801B0A2811D8206880690007F6D4206829
:10273000816941F00101816100F00CFA06460BE06D
:1027400000F008FA801B0A2806D9206E40F001002C
:10275000206684F85C70CEE720688069C007EFD0FF
:102760002068816941F0020181612168414502D1FF
:102770005C4960680860207C01282068816937D046
:1027800041F040018161607C01282068816932D07C
:1027900021F480418161A07C0128206881692DD0CD
:1027A00041F48051816120688169A26821F44071FF
:1027B000114381612068816921F0A4018161206851
:1027C000016921F010010161E068012819D010B3FE
:1027D00002281BD02068816941F080018161206856
:1027E000016941F010010161E06803280ED012E098
:1027F00021F04001C6E741F48041CBE721F480514C
:10280000D0E72068816941F0040103E02068816914
:1028100041F020018161207EE26940066FF0FF01F6
:1028200001EB0222A0F100701043226AA38A521E1B
:1028300010430A0202EB034318432368D861A068DF
:10284000B0F5407F10D1D4E90A0301EB0321401E0B
:102850000843216B131303EB01110843A18C02EB16
:10286000014108432168C860206850F8C01FE26B2E
:10287000114301601D4A21681B48914200D11C4848
:102880001C4A914201D100F5D460206451F8802F98
:10289000A38E22F4F81242EA03420A6000F17001AA
:1028A0006164216851F8802F94F8383022F070620A
:1028B00042EA03620A6000F1B001A164D831E16428
:1028C000D831216518316165D83100E020C08842D7
:1028D000FCD3A5652566012084F85C0000200BE789
:1028E000006400400065004000A400400068004013
:1028F00050A70040006C004010B586B0044614217B
:102900006846FDF7D1FC16492068884226D1154853
:10291000816D41F000718165816D01F0007105915B
:10292000C16C41F00101C164C06C694600F0010056
:1029300005904FF4C05000900220019000200290BA
:10294000039009200490C00600F016F800221146FA
:10295000152000F065F9152000F054F906B010BDFF
:102960000064004000100240704770477047704795
:1029700070477047704770472DE9FC4FDFF8A0A102
:10298000002301250AF1040B03244FF00F0C0BF177
:10299000040EBDE005FA03F632406FD04F68012FF8
:1029A00005D0022F03D0112F01D0122F17D1D0F84C
:1029B00008905F0004FA07F829EA08090097D1F89F
:1029C0000C8008FA07F848EA0908C0F80880476848
:1029D000B7430E79C6F300169E403E434660C66874
:1029E0004FEA430804FA08F7BE4301978F6807FAD5
:1029F00008F73743C7604E68022E01D0122E13D15C
:102A0000DE0800EB86060096366A5F07FF0E0CFABA
:102A100007F926EA0906D1F8109009FA07F949EAF8
:102A20000609009EC6F820900668019FBE430F79F4
:102A300007F0030707FA08F7374307604E68F60008
:102A400065D5384E376E47F001073766366E23F08E
:102A5000030706F001060096334E3E44B146B668C1
:102A60009F074FEA17780CFA08F7BE43B0F1904F72
:102A700005D02E4FB84204D1012717E047E00027C8
:102A800014E02B4FB84201D102270FE0294FB84282
:102A900001D103270AE0284FB84201D1042705E0FD
:102AA000264FB84201D1052700E0062707FA08F7AC
:102AB0003743C9F80870DAF800605746D1F8048047
:102AC00096435FEAC83800D516433E60DBF80060E5
:102AD0005F46D1F8048096435FEA883800D51643F4
:102AE0003E60DEF800607746D1F8048096435FEAE6
:102AF000C82800D516433E60094F0C373E68D1F810
:102B0000048096435FEA882800D516433E605B1C2C
:102B10000A6832FA03F67FF43DAFBDE8FC8F00008F
:102B20000004014000100240000001400004004881
:102B300000080048000C004800100048001400483D
:102B40000069084000D0012070470AB181617047D8
:102B50008162704701488068704700005000002083
:102B6000024881684268114481607047500000202B
:102B700010B50024032000F073F80F2000F008F8CF
:102B800008B1012401E000F025F8204610BD000046
:102B900070B50E4E05460024706898B14FF47A71F6
:102BA000B1FBF0F00A490968B1FBF0F000F08AFED1
:102BB00040B9102D06D200222946501E00F030F8F0
:102BC000356000E00124204670BD00005000002068
:102BD0005C0000200A4882B0016E41F001010166EC
:102BE000016E01F001010091816D41F0805181651C
:102BF000806D00F08050009002B000F07BB90000C2
:102C000000100240002809DB00F01F020121914062
:102C10004009800000F1E020C0F80011704700007A
:102C2000F0B40E4B1B680C46C3F30223C3F1070537
:102C3000042D00D90425191D072901D2002300E025
:102C4000DB1E012606FA05F1491E214099409E40EF
:102C5000761E16403143F0BC03F000BC0CED00E0E2
:102C6000064900F0070208684FF6FF03184040EAE3
:102C70000220034A10430860704700000CED00E09A
:102C80000000FA05F8B504004FF0000514D094F8E0
:102C90003A00052810D094F83A0002280CD03448A5
:102CA000016E41F001010166006E00F0010000902C
:102CB00094F83A0010B104E00120F8BD002084F837
:102CC0003900204600F058F8A0682A4A4FF4807175
:102CD000402836D0602834D020680368E66A23F0A4
:102CE000100333430360D4E901031843D4E90336E6
:102CF00033431843237D012B00D000210843616A30
:102D00000843A16A0843218E40EAC14094F8341078
:102D100040EA01612068036813401943016020689C
:102D20008169002909DBD4E906121143226A83690B
:102D300023F03F031A431143816194F83A0090B1A4
:102D400014E020680368E66A23F01003334303604D
:102D5000D4E901031843267D2369012E00D0002108
:102D60000B431843CBE7012084F83A002846F8BD0E
:102D700000100240113E00E030B587B00446142137
:102D80006846FDF791FA24681D4D00221D49032372
:102D90004FF09040AC4209D1CC6C44F00104CC64BB
:102DA000C96C01F0010105910E210CE0144D2D1D9F
:102DB000AC4211D1CC6C44F00104CC64C96C01F07C
:102DC00001010591E021CDE9001302924FEA0D01C6
:102DD000FFF7D2FD07B030BD094808308442F9D171
:102DE000C86C40F00200C864C86C694600F002007C
:102DF00005900720CDE9000302920348E8E70000B0
:102E0000000301400010024000040048002138B1D6
:102E100090F83A20052A03D090F83A20012A02D0EF
:102E20000121084670470268136843F001031360EC
:102E3000042280F83A20F4E72B492C4B0A6832210F
:102E40004A432B4940B1B0F5007F086829D020F4EF
:102E5000C06040F480602CE00868C0F34120022884
:102E600004D051F8800F20F4807022E0D1F8800067
:102E700020F48070C1F88000086820F4C06040F43D
:102E800000700860B2FBF3F0401C00E0401E4A698D
:102E9000520501D50028F9D1486940050AD503201B
:102EA0007047C0F34120022806D051F8800F40F44B
:102EB0008070086000207047D1F8800040F4807076
:102EC000C1F88000086820F4C06040F40070086019
:102ED000B2FBF3F0401C00E0401E4A695205DBD50E
:102EE0000028F9D1D8E700005C00002040420F0024
:102EF000007000400248816841F480418160704761
:102F0000007000402DE9F843044600680026BB4DE0
:102F100000035ED5A86D0027C00008D4A86D40F05E
:102F20008050A865A86D012700F080500090DFF860
:102F3000D092D9F8001041F48071C9F80010FFF761
:102F400009FE804606E000BFFFF704FEA0EB080084
:102F500002282BD8D9F80000C005F5D5D5F8900087
:102F600010F4407014D0216D814211D0D5F890003A
:102F7000D5F8901020F4407041F48031C5F89010DD
:102F8000D5F8901021F48031C5F89010C5F8900064
:102F9000C00711D0FFF7DEFD804641F2883907E017
:102FA000FFF7D8FDA0EB0801494501D903260BE046
:102FB000D5F890008007F3D5D5F89000216D20F466
:102FC00040700843C5F890001FB1A86D20F08050F4
:102FD000A8652078C00707D0D5F88800616820F080
:102FE00003000843C5F888002078800707D5D5F886
:102FF0008800A16820F00C000843C5F888002078FC
:10300000400707D5D5F88800E16820F03000084374
:10301000C5F888002078000707D5D5F88800216911
:1030200020F0C0000843C5F888002078C00607D506
:10303000D5F88800616920F440700843C5F888001D
:103040002078800607D5D5F88800A16920F4406073
:103050000843C5F888002078400607D5D5F88800D1
:10306000E16920F440500843C5F888002078000644
:1030700007D5D5F88800216A20F440400843C5F8F8
:1030800088002088C00507D5D5F88800616A20F43B
:1030900040300843C5F888002068800307D5D5F87C
:1030A0009C00A16A20F003000843C5F89C0020881A
:1030B000800507D5D5F88800E16A20F44020084350
:1030C000C5F88800208840050FD5D5F88800216B09
:1030D00020F440100843C5F88800206BB0F5801F2D
:1030E00003D1E86840F48010E860208800050FD51F
:1030F000D5F88800616B20F440000843C5F88800CB
:10310000606BB0F5800F03D1E86840F48010E86090
:103110002088C0040FD5D5F88800A16B20F040703E
:103120000843C5F88800A06BB0F1807F03D1E86840
:1031300040F48010E86020884FF0006180040ED5D4
:10314000D5F88800E26B20F040601043C5F8880095
:10315000E06B884203D1E86840F48010E860208882
:1031600040040ED5D5F88800226C20F04060104352
:10317000C5F88800206C884203D1E86840F48010CC
:10318000E860208800040FD5D5F88800616C20F035
:1031900040500843C5F88800606CB0F1805F03D1EF
:1031A000E86840F48030E8602068C0030FD5D5F8A7
:1031B0008800A16C20F040400843C5F88800A06C4E
:1031C000B0F1804F03D1E86840F48030E8602068B7
:1031D00040030FD5D5F89C00E16C20F44010084363
:1031E000C5F89C00E06CB0F5001F03D1E86840F41E
:1031F0008010E8603046BDE8F8830000001002400F
:10320000007000402DE9F0470E4605004FF0000722
:1032100025D0DFF8AC81D8F8000000F00F00B042F4
:103220000CD2D8F8001021F00F013143C8F800107B
:10323000D8F8000000F00F00B04210D12968614CAE
:10324000C80741F2883A5AD06868DFF87C910328B1
:1032500008D0022820682DD0400500282CDB012052
:10326000BDE8F08720688001F9D5E06800F003022E
:10327000E068C0F30310401C032A19D0534A00BF72
:10328000B2FBF0F0E268C2F306225043E268C2F3F8
:103290004162521C5200B0FBF2F0484517D9A068B9
:1032A00010F0F00F0CD0880711D5A86840B10EE0DF
:1032B000474AE5E78003D0E700F0BCF8484506D967
:1032C000A06820F0F00040F08000A0608027A06897
:1032D000696820F003000843A060FFF73BFC8146CB
:1032E00006E000BFFFF736FCA0EB090151453AD8D4
:1032F000A068696800F00C00B0EB810FF2D128687B
:10330000810714D5400703D5A06840F4E060A060B1
:103310002878000705D5A06820F4605040F4E060EC
:10332000A060A068A96820F0F000084304E0802FA6
:1033300003D1A06820F0F000A060D8F8001040464B
:1033400001F00F01B14216D9016821F00F0131439C
:103350000160FFF7FFFB074607E000BFFFF7FAFB3E
:10336000C11B514501D903207AE7D8F8000000F0CD
:103370000F00B042F2D12878400705D5A068E9686F
:1033800020F4E0600843A0602878000706D5A06814
:10339000296920F4605040EAC100A06000F04AF8BA
:1033A000A1680C4AC1F30311515C01F01F01C84030
:1033B0000949086009480068BDE8F047FFF7E8BB25
:1033C000002002400010024000B4C4040024F400B5
:1033D00000127A00986A00085C000020500000206B
:1033E00001480068704700005C000020054806495D
:1033F00000688968054AC1F30221515C01F01F0190
:10340000C84070475C00002000100240A86A000815
:103410000548064900688968054AC1F3C221515C24
:1034200001F01F01C84070475C00002000100240FE
:10343000A86A0008184910B58868C0F381021748C7
:10344000012A0BD08A684310C2F38102022A06D0F7
:103450008A68C2F38102032A03D0002010BD1846F7
:1034600010BDCA6802F00304CA68C2F30312521CFA
:10347000032C02D0B0FBF2F001E0B3FBF2F0CA681B
:10348000C968C2F306225043C1F34161491C490097
:10349000B0FBF1F010BD0000001002400024F40069
:1034A0002DE9F84304007AD02078FA4DC00747D0C0
:1034B000A868E96800F00C0001F003010C2802D0B4
:1034C000082817D001E0032914D06068B0F5803FC8
:1034D00017D0B0F5A02F286817D020F480302860CE
:1034E000286820F4802028606068E0B1FFF732FB94
:1034F000064614E02868800322D560680028D2D0F0
:103500001EE0286840F48030EDE740F48020286019
:10351000F7E700BFFFF71EFB801B642870D8286800
:103520008003F7D50CE0FFF715FB064605E000BF6A
:10353000FFF710FB801B6428F0D828688003F7D4BD
:10354000207880074CD5A868E96800F00C0001F0ED
:1035500003010C2802D004280DD001E002290AD072
:10356000E068002828682BD040F480702860FFF7BE
:10357000F1FA064619E02868400502D5E0680028FF
:1035800091D06868217C20F0FE4040EA01606860CC
:10359000C1480068FFF7FCFA002800D120E076E17E
:1035A000FFF7D8FA801B0228B8D828684005F7D55D
:1035B0006868217C20F0FE4040EA016068600FE00E
:1035C00020F480702860FFF7C5FA064605E000BFCA
:1035D000FFF7C0FA801B0228A0D828684005F7D45E
:1035E0002078000729D560690028D5F8940013D009
:1035F00040F00100C5F89400FFF7ACFA064606E07B
:1036000090E000BFFFF7A6FA801B022886D8D5F805
:1036100094008007F6D510E020F00100C5F8940072
:10362000FFF798FA064604E0FFF794FA801B022899
:1036300078D8D5F894008007F6D42078400761D573
:10364000A86D0026C00008D4A86D40F08050A86581
:10365000A86D012600F08050009090480168C905CF
:1036600011D40168804641F480710160FFF772FA5D
:10367000074604E0FFF76EFAC01B022852D8D8F8BC
:103680000000C005F6D5A068012815D00528D5F89A
:10369000900016D020F00100C5F89000D5F89000F9
:1036A00020F00400C5F89000A06841F28838B8B155
:1036B000FFF750FA07460EE0D5F8900040F0010001
:1036C000F0E740F00400C5F89000F5E7FFF742FA94
:1036D000C11B414526D8D5F890008007F6D50CE0EF
:1036E000FFF738FA074604E0FFF734FAC11B4145FB
:1036F00018D8D5F890008007F6D41EB1A86D20F038
:103700008050A8652078800629D5A0690028D5F8C2
:10371000980013D040F00100C5F89800FFF71AFA9E
:10372000064606E077E000BFFFF714FA801B022888
:1037300077D8D5F898008007F6D510E020F0010082
:10374000C5F89800FFF706FA064604E0FFF702FA0C
:10375000801B022865D8D5F898008007F6D4E06968
:10376000F0B3A968C1F38101032961D00228286858
:1037700020F0807028600BD0E86820F00300E8603B
:10378000E86847490840E860FFF7E4F904464BE081
:10379000FFF7E0F9064604E0FFF7DCF9801B02289A
:1037A0003FD828688001F7D4F4E908016FF00F02D0
:1037B00002EB01110843218A5204490802EB4151EE
:1037C000A26841EA02210843217D4FF07E42490868
:1037D00002EB41610843217B40EAC160E96800E0F7
:1037E00062E0304A11400843E860286840F0807089
:1037F0002860E86840F08070E860FFF7ABF90446A5
:1038000005E000BFFFF7A6F9001B022809D82868C9
:103810008001F7D548E004E0FFF79CF9001B02287F
:1038200002D90320BDE8F88328688001F4D43BE086
:103830000128F7D0E868226A00F00301914226D1FE
:10384000616A00F0F0020901103991421FD1A26AA9
:1038500000F4FE41B1EB022F19D194F82C2000F0B6
:103860007841B1EBC26F12D1218E00F4C002490839
:103870004905A1F50011914209D194F8341000F0E6
:10388000C06049084906A1F1007181420CD00120B5
:10389000C8E7000000100240500000200070004007
:1038A000FFFFEEFE0C809F010020BBE74FF0E02100
:1038B0000428086903D020F004000861704740F034
:1038C0000400FAE710B5401EB0F1807F01D301205B
:1038D00010BD4FF0E02460610F21601702F0BEFDC3
:1038E0000020A06107202061002010BD70477047B4
:1038F00070470000F0B590F83C20012A58D0012212
:1039000080F83C20CA688B6822F440721A434B68E6
:1039100022F480621A430B6822F400621A430B6996
:1039200022F480521A434B6922F400521A430B6B63
:1039300022F480421A430B8B22F4702242EA0342A3
:103940001C4C036800271C4D1C4EA34203D0AB4205
:1039500001D0B34205D1D1F81CC022F0805242EA16
:103960000C02A34203D0AB4201D0B3421BD1B1F849
:1039700028C022F4700242EA0C52D1F820C022F092
:10398000807242EA0C02D1F824C022F0007242EAAE
:103990000C02A34203D0AB4201D0B34203D1C96AA7
:1039A00022F000520A435A6480F83C700020F0BDB7
:1039B0000220F0BD002C01400034014000500140C5
:1039C000F0B590F83C30012B0FD0012380F83C304B
:1039D0001368102B29D00ADC012B12D0022B15D032
:1039E000042B18D0082B08D11AE00220F0BD202BA0
:1039F00020D0402B21D0802B28D0002423462646DF
:103A00001EE001240026630209251AE00224012693
:103A100063020A2515E00424022663020B2510E048
:103A20000824032663020C250BE0102404266302FD
:103A30000D2506E02024052601E04024062600236B
:103A40000025012905D0022924D113E0802407266E
:103A5000F5E7D0F800C0DCF8607051689268B140BA
:103A6000A74321403943AA4099431A400A43CCF85E
:103A700060200FE00768D7F864C051689268B140D1
:103A80002CEA040C214041EA0C01AA4099431A4057
:103A90000A437A66002180F83C100846F0BD704762
:103AA00070477047F0B590F83C20012A43D00125BB
:103AB00080F83C50022280F83D2003685A689C68D8
:103AC0001E4E1F4FDFF87CC0B34203D0BB4201D073
:103AD000634504D122F4700E4A6842EA0E02DFF810
:103AE00068E002EA0E02D1F800E04EEA020EC3F8E6
:103AF00004E00268B24212D0B2F1804F0FD0134BF3
:103B00009A420CD0124B9A4209D0124B9A4206D0DC
:103B1000BA4204D0104B9A4201D0624504D1896860
:103B200024F080031943916080F83D50002180F813
:103B30003C100846F0BD0220F0BD0000002C014002
:103B400000340140005001408FFFFFFD00040040A1
:103B500000080040000C00400040014010B5044641
:103B6000022249B104290ED0082913D094F8470045
:103B7000012816D0012010BD94F844000128F9D185
:103B800084F844200FE094F845000128F2D184F82D
:103B9000452008E094F846000128EBD184F846203F
:103BA00001E084F847200422206801F0C0FC20686E
:103BB000416C41F40041416413492068884214D0AB
:103BC000B0F1804F11D0114988420ED0104988427F
:103BD0000BD01049884208D00F49884205D00F49C0
:103BE000884202D00E49884207D181680D4A1140AF
:103BF000062906D0B1F5803F03D0016841F00101EC
:103C00000160002010BD0000002C014000040040B5
:103C100000080040000C004000340140004001401A
:103C20000050014007000100704710B5040003D0A8
:103C300094F83D0010B107E0012010BD002084F889
:103C40003C00204600F022F8022084F83D00211DAF
:103C5000206801F0F5FB012084F8480084F83E005C
:103C600084F83F0084F8400084F8410084F8420062
:103C700084F8430084F8440084F8450084F8460042
:103C800084F8470084F83D00002010BD08B50068A6
:103C90001349884222D11348016E41F40061016644
:103CA000006E002200F40060009011461820FEF71C
:103CB000B7FF1820FEF7A6FF002211461920FEF7D5
:103CC000AFFF1920FEF79EFF002211461B20FEF7D2
:103CD000A7FFBDE808401B20FEF794BF08BD000009
:103CE000002C01400010024090F83D10012901D045
:103CF00001207047022180F83D1000681249884277
:103D000014D0B0F1804F11D0104988420ED0104924
:103D100088420BD00F49884208D00F49884205D00D
:103D20000E49884202D00E49884207D181680D4A67
:103D30001140062906D0B1F5803F03D0016841F05B
:103D40000101016000207047002C01400004004088
:103D500000080040000C00400034014000400140D9
:103D6000005001400700010070B5044690F83C0087
:103D700001281CD0012584F83C50022084F83D0025
:103D8000226890682F4B184020F47F4090600868AC
:103D9000B0F5005F2BD013DC40284BD009DCB8B164
:103DA000102815D0202813D030283DD110E0022053
:103DB00070BD502827D060282DD0702834D10BE05A
:103DC00010F00F0F30D10111A1F5803107292BD848
:103DD00022680146104625E0CB68D1E90121206820
:103DE00001F0B2FB2068816841F0770109E0CB68FF
:103DF000D1E90121206801F0A7FB2068816841F426
:103E00008041816010E0CA684968206801F070FD57
:103E10005021206806E0CA684968206801F079FDF1
:103E20006021206801F09AFB84F83D50002084F85E
:103E30003C0070BDCA684968206801F059FD402106
:103E40002068EFE788FFCEFF704770B50446006832
:103E500001694FF00005C943890715D4C168C943FA
:103E6000890711D4E91E016101202077206880694B
:103E70008007204602D0FFF7E7FF04E000F02EF9AC
:103E8000204600F0EDF9257720680169C94349070C
:103E900017D4C168C943490713D46FF00401016105
:103EA000022020772068806910F4407F204602D0ED
:103EB000FFF7CAFF04E000F011F9204600F0D0F946
:103EC000257720680169C943090716D4C168C94329
:103ED000090712D46FF008010161042020772068DF
:103EE000C0698007204602D0FFF7AEFF04E000F073
:103EF000F5F8204600F0B4F9257720680169C94338
:103F0000C90617D4C168C943C90613D46FF010019C
:103F10000161082020772068C06910F4407F2046A6
:103F200002D0FFF791FF04E000F0D8F8204600F03F
:103F300097F9257720680169C943C90708D1C16885
:103F4000C943C90704D1891E0161204600F014FA53
:103F500020680169C943090609D4C168C943090633
:103F600005D46FF0800101612046FFF7C0FC206896
:103F70000169C943C90509D4C168C943090605D403
:103F80006FF4807101612046FFF7B0FC2068016981
:103F9000C943490609D4C168C943490605D46FF02D
:103FA00040010161204600F0E8F920680169C94339
:103FB000890609D4C168C943890605D46FF0200178
:103FC00001612046FFF794FC20680169C943C902DA
:103FD00009D4C168C943C90205D46FF480110161D5
:103FE0002046FFF75DFD20680169C943890209D4B5
:103FF000C168C943890205D46FF4001101612046EC
:10400000FFF74DFD20680169C943490209D4C16821
:10401000C943490205D46FF4800101612046FFF7CE
:1040200040FD20680169C94309020BD4C168C94336
:10403000090207D46FF4000101612046BDE8704019
:10404000FFF7F2BD70BD0000F0B587B00446142143
:104050006846FCF729F91E492068884236D11D4878
:10406000C16C41F00201C164C16C01F00201059113
:10407000C16C41F00101C164C06C022500F0010077
:1040800005904FF4C04000900024CDE9015406266D
:10409000114FCDE9034669463846FEF76DFCA8038B
:1040A0000090CDE901540420CDE90340694638462B
:1040B000FEF762FC4FF4E0600090CDE90154CDE9D9
:1040C000034669464FF09040FEF756FC07B0F0BD3E
:1040D000002C01400010024000040048704770B5F9
:1040E000044690F83C000D4601280BD0012084F8CE
:1040F0003C000C2A45D007DC5AB1042A1BD0082A00
:1041000078D12CE0022070BD102A4ED0142A71D133
:104110005DE0206801F02CFA2068816941F0080117
:1041200081612068816921F00401816120688169D1
:104130002A69114311E0206801F070FA2068816952
:1041400041F4006181612068816921F480618161AD
:10415000206881692A6941EA022181614AE0206878
:1041600001F0ACFA2068C16941F00801C161206822
:10417000C16921F00401C1612068C1692A69114344
:1041800011E0206801F0EAFA2068C16941F4006199
:10419000C1612068C16921F48061C1612068C16981
:1041A0002A6941EA0221C16124E0206801F026FB6E
:1041B0002068016D41F0080101652068016D21F062
:1041C000040101652068016D2A69114311E020682E
:1041D00001F050FB2068016D41F400610165206829
:1041E000016D21F4806101652068016D2A6941EA51
:1041F00002210165002084F83C0070BD10B5040068
:1042000003D094F83D0010B107E0012010BD00205C
:1042100084F83C00204600F022F8022084F83D009B
:10422000211D206801F00CF9012084F8480084F871
:104230003E0084F83F0084F8400084F8410084F890
:10424000420084F8430084F8440084F8450084F870
:10425000460084F8470084F83D00002010BD7047F8
:104260007047000070B50446022269B1042912D0DB
:10427000082917D00C291CD0102921D094F843000C
:10428000012824D0012070BD94F83E000128F9D106
:1042900084F83E201DE094F83F000128F2D184F814
:1042A0003F2016E094F840000128EBD184F840202C
:1042B0000FE094F841000128E4D184F8412008E09F
:1042C00094F842000128DDD184F8422001E084F80E
:1042D00043200122206801F01DF91D4920681D4A74
:1042E0001D4B1E4D88420BD0904209D0984207D0FA
:1042F0001B4EB04204D01B4EB04201D0A84203D1A5
:10430000466C46F4004646642068884211D0B0F1FD
:10431000804F0ED0144988420BD01449884208D0EF
:104320001349884205D0904203D0984201D0A84258
:1043300007D181680F4A1140062906D0B1F5803FA8
:1043400003D0016841F001010160002070BD000050
:10435000002C014000340140004001400050014069
:1043600000440140004801400004004000080040B3
:10437000000C0040070001007047704790F8801063
:10438000012918D0012180F880102421C0F8841060
:1043900050F8641B0A680B6823F001030B6022F0DD
:1043A00000510022026050F8643C19602021016233
:1043B000027710467047022070477047704770B50B
:1043C000044690F8800001281DD0012084F8800068
:1043D0002420C4F8840020680568026822F00102E5
:1043E00002602068826822F060620A438260204690
:1043F00001F0A2FA206805602020C4F884000020A3
:1044000084F8800070BD022070BD70B5044690F83D
:10441000800001281DD0012084F880002420C4F8E9
:10442000840020680568026822F0010202602068AA
:10443000826822F060420A438260204601F07CFAE2
:10444000206805602020C4F88400002084F88000E3
:1044500070BD022070BD7047704770472DE9F04174
:1044600003680446D86919689A6840F60F0528421F
:104470004FF0000509D186067ED501F0200602F036
:1044800080573E4378D0216FFFE0924E924F164006
:104490000F40374370D0C70709D0CF0507D5012794
:1044A0001F62D4F88C3043F00103C4F88C308307CA
:1044B0000AD5D30708D0276802233B62D4F88C3092
:1044C00043F00403C4F88C3043070AD5D30708D05F
:1044D000276804233B62D4F88C3043F00203C4F80D
:1044E0008C3003070CD501F02003334308D0266835
:1044F00008233362D4F88C3043F00803C4F88C30BE
:1045000003050BD54B0109D526684FF400633362D0
:10451000D4F88C3043F02003C4F88C30D4F88C30BD
:10452000002B34D0800609D501F0200002F0805124
:10453000084303D0216F09B120468847D4F88C0086
:1045400021688968490602D410F0280F21D020463E
:1045500001F0F8FA20688168490615D5816821F0D4
:1045600040018160E06F78B15C498163E06FFDF7E5
:10457000C2FE00280BD000E011E0E06F816B00E08C
:104580002046BDE8F04108472046FFF766FFBDE83A
:10459000F0812046FFF761FFC4F88C50F7E7E76E23
:1045A0002026012F5CD1C7065AD5CF0658D510203A
:1045B00018622068816849062FD5E26F1168496842
:1045C0000904090CE3D0B4F85C308B42DFD9A4F8BD
:1045D0005E1011680968890618D4016821F4807199
:1045E00001602068816821F0010181602068816894
:1045F00021F040018160C4F88860E56620680168A8
:1046000021F010010160E06FFDF740FEB4F85C009E
:10461000B4F85E10401A81B21EE0B4F85C10B4F831
:104620005E20891AB4F85E2089B2002AAFD0002932
:10463000ADD0026822F49072026020688268254B37
:10464000DB431A408260C4F88860E566256720680D
:10465000026822F0100202602046FFF7AEFE96E7E5
:10466000C70209D5570207D54FF4801018622046BB
:10467000BDE8F041FFF7F0BE07060AD501F080075C
:1046800002F40002174304D0616F00297FF478AF71
:104690007DE742060CD54A060AD51968204621F066
:1046A00040011960C4F88460656700F075F96EE731
:1046B000020206D54A0004D52046BDE8F041FFF7C6
:1046C000CABEC001CBD50029C9DA2046BDE8F041F9
:1046D000FFF774BE0100001020010004A55A000875
:1046E00010B5040003D0D4F8840010B107E0012015
:1046F00010BD002084F88000204600F027F8242018
:10470000C4F884002068016821F00101016020469E
:1047100001F0FEFB0128EBD0A06A10B1204601F0A9
:104720002DF92068416821F490414160206881683A
:1047300021F02A0181602068016841F001010160D7
:104740002046BDE8104001F07DB9000070B586B08C
:10475000064614216846FBF7A7FD214930688842C8
:104760003BD12049086E40F480400866086E00F492
:1047700080400590C86C40F00200C864C86C0025F9
:1047800000F002000590C02000900220CDE9010554
:104790000720CDE9035069461348FEF7EDF8144CA5
:1047A00012482060192060601020C4E902058020B2
:1047B000C4E90405A561E56120462562FDF734FEE4
:1047C00008B1FBF778FFB467002211462520A662E6
:1047D000FEF726FA2520FEF715FA06B070BD000098
:1047E0000038014000100240000400480800024068
:1047F000BC03002010B4D0F88830202B1BD1B9B1F5
:10480000B2B190F88030012B15D0012380F88030B0
:104810000023C366094C0368A34206D05C682402E7
:1048200003D51C6844F080641C6010BC01F0BEBC61
:10483000012010BC70470220FBE700000080004010
:1048400070472DE9F8430446D0F884001F46164609
:104850000D46202851D1DDB1D6B194F88000012851
:104860004BD0012084F880004FF00008C4F88C8001
:104870002120C4F884001834FEF76CF9A68781461D
:10488000E68754F8100C183CB0F5805F03D004E0C4
:104890000120BDE8F883206920B12E46002584F868
:1048A000808010E00026FAE78021204601F0EAFC33
:1048B000B8B9C6B116F8010B21688862B4F8560081
:1048C000401EA4F85600B4F856004B464FF00002C4
:1048D00000970028E8D14FF04001204601F0D2FCBB
:1048E00030B10320D5E735F8020BC0F30800E3E749
:1048F0002020C4F884000020CBE70220C9E7000094
:1049000070B50446D0F8840020283DD171B36AB355
:1049100094F88000012837D0012084F880002165B8
:10492000A4F85420A4F856200025C4F88C50212067
:10493000C4F88400A06FD8B11449C162A16F1448B3
:1049400013460863A16F13484863A06F8563266808
:10495000216D06F12802A06FFDF7C6FD40B11020C1
:10496000C4F88C0004F8805F20206060012070BDD6
:1049700021684020086284F880502068816841F0F6
:1049800080018160002070BD022070BD095B0008BD
:10499000395B0008B95A000870477047FEE700EB22
:1049A0008100006E00F0F840704700EB8100006E5F
:1049B00000F0F84070478068C0F3C000704780681E
:1049C000C0F3C00070478068C0F380007047806803
:1049D000C0F380007047C06810F4406F01D0002021
:1049E000704701207047042303EAD15310B51844DF
:1049F0004369C1F3045107248C40A3438A40134305
:104A0000436110BD042303EAD15310B51844436930
:104A1000C1F3045107248C40A3438A4013434361EC
:104A200010BD00EB8100016E21F0004111430166D1
:104A3000704700EB8100016E21F0004111430166D7
:104A4000704700002DE9F0419AB0002417941894A3
:104A500020210FA81994FBF727FC3C216846FBF79F
:104A600023FC32484FF0A041042501604FF400219F
:104A7000C0E9011485614FF00108C460C0E9044831
:104A800004774477C0F8208080F82440C46204632F
:104A900080F83840C46380F84040FCF717FF08B145
:104AA000FBF709FE17A921481794FCF7C7FA08B1CC
:104AB000FBF701FE1E4E10A906207F270F9681E806
:104AC0009100CDE913540FA91848FCF767FB08B112
:104AD000FBF7F1FD0920CDE9006002200890CDE947
:104AE00004548420CDE902870A908DF82440802068
:104AF0008DF825400B908DF826408DF830406946A2
:104B00000A48FBF72DFE08B1FBF7D5FD09480090D8
:104B100040F20F10019069460448FBF721FE00287F
:104B200001D0FBF7C8FD1AB0BDE8F081A400002059
:104B30000800900C00106032F0B597B020210FA84B
:104B4000FBF7B2FB3C216846FBF7AEFB2748264942
:104B500000240160C902C0E90114C4600425046195
:104B6000C0E90545047744770126066280F82440B1
:104B7000C462046380F83840C46380F84040FCF7A6
:104B8000A5FE08B1FBF797FD19480F9010A9062064
:104B90007F2781E89100CDE913540FA91348FCF752
:104BA000FDFA08B1FBF787FD1248009001A9092022
:104BB00081E8C100CDE9045484200A908DF8244096
:104BC00080208DF825400B9008968DF826408DF8B2
:104BD000304069460548FBF7C3FD002801D0FBF7CC
:104BE0006AFD17B0F0BD0000000100501001002068
:104BF000020030040800900C0C4810B50A4901600E
:104C0000891541604021816000210161C1604161DD
:104C100011218161FDF7C0F8002803D0BDE81040E4
:104C2000FBF749BD10BD0000000201407C010020DF
:104C300000B58DB030216846FBF736FB11491048AE
:104C400008600846FDF7D2FA08B1FBF734FD0220F0
:104C5000009000208DF804008DF80500029003906C
:104C600001210490CDE905010246079069460548F7
:104C7000FDF7E2F9002801D0FBF71DFD0DB000BDE6
:104C800000080050A001002000B58DB0302168461A
:104C9000FBF70AFB1149104808600846FDF7A6FA21
:104CA00008B1FBF708FD002002218DF804008DF803
:104CB00005000290CDE906100091CDE904010390B2
:104CC000024669460548FDF7B7F9002801D0FBF711
:104CD000F2FC0DB000BD000000100050B401002037
:104CE0000D4808B5816C41F004018164816C01F0CC
:104CF00004010091816C41F001018164806C00220B
:104D000000F00100009011460B20FDF789FFBDE87F
:104D100008400B20FDF776BF0010024070B5124826
:104D2000104914230160002141608160C160017459
:104D3000417481740122C0E905320A2405254362C9
:104D400000F12806C0E9074586E834004263C0E95F
:104D50000E21FDF7C5FC002803D0BDE87040FBF72D
:104D6000AABC70BD00640040C80100202DE9F04FCE
:104D700087B014216846FBF797FA4E48C16C41F0A2
:104D80001001C164C16C01F010010591C16C41F0CA
:104D90002001C164C16C01F020010591C16C41F09A
:104DA0000401C164C16C01F004010591C16C41F0C2
:104DB0000101C164C16C01F001010591C16C41F0B8
:104DC0000201C164C16C01F002010591C16C41F0A6
:104DD0000801C164C06CDFF8E09000F008000590A5
:104DE00000225F214846FDF7B0FEDFF8D0A040F278
:104DF0000467002239465046FDF7A7FEDFF8C0B031
:104E000040F60C48002241465846FDF79EFE00221F
:104E1000A2212C48FDF799FE002238212A48FDF7EF
:104E200094FE01245F20CDE900040225694648462E
:104E3000CDE90245FDF7A0FD20200026CDE90006C2
:104E4000694602944846FDF797FDCDE9007469462E
:104E50005046CDE90245FDF78FFDCDE90084694656
:104E60005846CDE90245FDF787FD5920CDE90006FA
:104E7000694614480296FDF77FFDA22003958DE850
:104E8000510069460F48FDF777FD082003958DE82E
:104E9000510069460C48FDF76FFD3020CDE9000454
:104EA00069460948CDE90245FDF766FD07B0BDE852
:104EB000F08F00000010024000100048001400486D
:104EC00000080048000C0048000400480B4810B5DA
:104ED00009490160002141608160C1600161017583
:104EE0008161C162FDF7CEFE002803D0BDE810400D
:104EF000FBF7E1BB10BD0000000301402C020020C5
:104F00000B4810B509490160002141608160C16012
:104F1000016101758161C162FDF7B4FE002803D013
:104F2000BDE81040FBF7C7BB10BD00000403014003
:104F3000680200200B4810B509490160002141605A
:104F40008160C160016101758161C162FDF79AFEF6
:104F5000002803D0BDE81040FBF7ADBB10BD00003A
:104F600008030140A40200202DE9F0419EB0002476
:104F70001A941B941C941D941494159416941794CD
:104F800018941C2168461994FBF78EF9342107A860
:104F9000FBF78AF9434842490127C0E90014202160
:104FA000816041F63F71C1604FF480718461C0E956
:104FB0000417FEF73AFE08B1FBF77DFB4FF480586B
:104FC0001AA93848CDF86880FEF7CEFE08B1FBF785
:104FD00072FB3448FFF712F908B1FBF76CFB70263F
:104FE000CDE9146414A92F481694FEF75BFD08B1AF
:104FF000FBF761FBCDE91874022517AA01212948A6
:105000001795FEF7DDFC08B1FBF755FB6020CDE9F5
:1050100000040294039404940594002269462148F4
:105020000694FFF75CF808B1FBF745FB04226946DC
:105030001C48FFF754F808B1FBF73DFB082269460E
:105040001848FFF74CF808B1FBF735FB41F63E7006
:10505000CDE900600C2269461248FFF740F808B11C
:10506000FBF729FB079478200894CDE90940CDE9A6
:105070000D544FF40050CDE90B800003CDE90F40F3
:105080001194129407A907481394FEF733FC08B152
:10509000FBF711FB0348FEF7D7FF1EB0BDE8F08118
:1050A000002C0140E0020020184810B516490160AC
:1050B0004FF4E1314160002181600C22C160C0E900
:1050C00004128161C161016241628162FFF708FBE4
:1050D00008B1FBF7F0FA00210C48FFF796F908B188
:1050E000FBF7E9FA00210948FFF769F908B1FBF776
:1050F000E2FA0648FFF742F9002803D0BDE8104065
:10510000FBF7D9BA10BD0000003801402C03002085
:10511000FEE7FEE7704700002DE9F041614C624D6B
:10512000624E9046022850D008B101287ED101225B
:10513000570239462846FDF708FD012001F06EFAB6
:10514000002239462846FDF700FD052001F066FAE9
:10515000012204212046FDF7F8FC01220421284603
:10516000FDF7F3FC012204213046FDF7EEFC04209C
:1051700001F054FA002204212846FDF7E6FC042041
:1051800001F04CFA002204212046FDF7DEFC042049
:1051900001F044FA002204213046FDF7D6FC042039
:1051A00001F03CFA4146032000F082F8012204217C
:1051B0003046FDF7CAFC042001F030FA2846BDE86D
:1051C000F04101220421FDF7C0BC88F80010012243
:1051D00004212046FDF7B9FC042001F01FFA01224A
:1051E00004212846FDF7B1FC042001F017FA002243
:1051F00004212846FDF7A9FC042001F00FFA012242
:1052000004213046FDF7A1FC042001F007FA00223A
:1052100004213046FDF799FC042001F0FFF94146D6
:10522000012000F079F80122042100E037E0304647
:10523000FDF78BFC042001F0F1F90122042128463E
:10524000FDF783FC012204212046FDF77EFC0122AC
:1052500004212846FDF779FC012204213046FDF7A0
:1052600074FC042001F0DAF9002204212846FDF73D
:105270006CFC042001F0D2F9002204212046FDF745
:1052800064FC012001F0CAF9002204213046FDF738
:105290005CFC042001F0C2F94146012084E7BDE82E
:1052A000F081000000100048001400480008004889
:1052B0002DE9F047894604460025164F26E00026D2
:1052C000012204213846FDF740FC6806050E012046
:1052D00001F0A4F920213846FDF732FC8046002277
:1052E00004213846FDF731FCB8F1000F01D045F03C
:1052F0000105012001F092F9761CF6B2082EDFD3E9
:1053000009EB0400641E00F8015CE4B2002CD6D165
:10531000BDE8F087001000482DE9F04188460446BA
:10532000154F25E008EB0400002510F8016C012260
:1053300004213846FDF709FC300601D5012200E0C2
:10534000002240213846FDF700FC012001F066F9FB
:10535000002204213846FDF7F8FB012001F05EF938
:1053600070066D1C060EEDB2082DE0D3641EE4B28B
:10537000002CD7D1BDE8F081001000487047FDF740
:10538000EFBB10B5A8B0382115A8FAF78DFF14218E
:1053900023A8FAF789FF54216846FAF785FF002011
:1053A000FDF74AFD01210804CDE915100220032470
:1053B0001C90CDE91D412821CDE91F10219022909C
:1053C00015A8FEF76DF808B172B6FEE70F20CDE91B
:1053D0002304002425942694042123A82794FDF770
:1053E00011FF08B172B6FEE749F20100CDE90004F1
:1053F00040060E90000111906846FDF783FD0028DD
:1054000001D072B6FEE728B010BD00000248016866
:1054100041F470010160704788ED00E00148FEF73B
:1054200014BD0000E00200200148FEF70EBD0000A0
:10543000E00200200148FEF708BD0000E002002065
:105440002DE9F04F02682A4B2A4E2B4FDFF8ACC0F3
:105450002B4C2C4D4FF0804B98420BD0584509D027
:10546000B04207D0B84205D0604503D0A04201D079
:10547000A84204D122F070084A6842EA0802DFF824
:105480008880DFF88890DFF888A0984211D05845CE
:105490000FD0B0420DD0B8420BD0604509D0A04229
:1054A00007D0404505D0484503D0504501D0A8421B
:1054B00003D122F44076CA6832434E6922F080025A
:1054C000324302608A68C2620A688262984209D0E6
:1054D000A04207D0404505D0484503D0504501D0F3
:1054E000A84201D10969016301214161BDE8F08F42
:1054F000002C01400004004000080040000C004067
:10550000003401400050014000400140004401408F
:105510000048014010B501F01F030121046A9940C1
:105520008C430462016A9A401143016210BD10B5B8
:1055300001F01F030421046A99408C430462016A4C
:105540009A401143016210BD10B5846842EA0322FB
:1055500024F47F440A432243826010BD8268034BD7
:105560001A400A4342F00701816070478FFFCFFF66
:105570002DE9F047026A22F001020262056A4368DF
:1055800082691F4C25F0020522400C6822F00302BC
:1055900014438A681C4E2A431A4D1C4FDFF870C012
:1055A000DFF87090DFF870A0A84209D0B04207D0B1
:1055B000B84205D0604503D0484501D0504506D1DA
:1055C00022F00808CA6842EA080222F00402A8424F
:1055D00009D0B04207D0B84205D0604503D0484555
:1055E00001D0504505D14D6923F440731D438B69AB
:1055F0002B4343608461496841630262BDE8F087E0
:105600008FFFFEFF002C01400034014000400140AC
:10561000004401400048014000500140F0B5026ADA
:1056200022F010020262056A426883691C4C1E4E19
:1056300023400C6823F4407343EA042425F020033C
:105640008D681A4F43EA0513164DA84203D0B042A5
:1056500001D0B84207D1D1F80CC023F0800343EA4F
:105660000C1323F04003A8420CD0B0420AD0104DD6
:10567000A84207D00F4DA84204D00F4DA84201D038
:10568000B84207D14D6922F4406242EA85028D6931
:1056900042EA850242608461496881630362F0BD29
:1056A000FF8FFFFE002C01400034014000500140FC
:1056B000004001400044014000480140F0B5026A4A
:1056C00022F480720262056A4268C3691C4C1E4E55
:1056D00023400C6823F003031C4325F400738D68FA
:1056E0001A4F43EA0523174DA84203D0B04201D018
:1056F000B84207D1D1F80CC023F4006343EA0C236D
:1057000023F48063A8420CD0B0420AD0104DA842C6
:1057100007D0104DA84204D00F4DA84201D0B84286
:1057200007D14D6922F4405242EA05128D6942EADE
:1057300005124260C4614968C1630362F0BD0000A4
:105740008FFFFEFF002C014000340140005001405B
:10575000004001400044014000480140F0B5026AA9
:1057600022F480520262056A4268C3691C4C1E4ED4
:1057700023400C6823F4407343EA042425F40053C7
:105780008D681A4F43EA0533164DA84203D0B04244
:1057900001D0B84207D1D1F80CC023F4004343EA4A
:1057A0000C3323F48043A8420CD0B0420AD0104DF1
:1057B000A84207D00F4DA84204D00F4DA84201D0F7
:1057C000B84207D14D6922F4404242EA85128D6900
:1057D00042EA85124260C461496801640362F0BD17
:1057E000FF8FFFFE002C01400034014000500140BB
:1057F00000400140004401400048014030B5026AC9
:1058000022F480320262046A4268036D124D2B401A
:105810000D681D4324F400330C8943EA04430F4C04
:10582000A0420ED00E4CA0420BD00E4CA04208D08D
:105830000D4CA04205D00D4CA04202D00C4CA04211
:1058400004D14C6922F4803242EA042242600565A8
:1058500049688164036230BD8FFFFEFF002C014068
:105860000034014000400140004401400048014034
:105870000050014030B5026A22F480120262046ACC
:105880004268036D134D24F400142B400D6843EA65
:1058900005230D8944EA05540F4DA8420ED00F4D43
:1058A000A8420BD00E4DA84208D00E4DA84205D0FC
:1058B0000D4DA84202D00D4DA84204D14D6922F4ED
:1058C000802242EA8522426003654968C16404621D
:1058D00030BD0000FF8FFFFE002C0140003401406E
:1058E0000040014000440140004801400050014098
:1058F00010B5036A046A24F001040462846924F088
:10590000F00444EA021423F00A020A4384610262AA
:1059100010BD10B5036A23F0100303628369046AA3
:1059200023F4704343EA023224F0A00343EA011156
:105930008261016210BD000030B5416EB9B10268EC
:1059400091689268C1F342610B4B520F9C5CE50079
:1059500003F10804A25CB5FBF2F2A0F86A205A5CDD
:10596000615CD200B2FBF1F1A0F8681030BD0121FA
:10597000A0F86A10F8E70000886A000890F828107C
:10598000C90706D001684A68C36A22F400321A4384
:105990004A6090F82810890706D501684A68036BA9
:1059A00022F480321A434A6090F82810490706D53D
:1059B00001684A68436B22F480221A434A6090F8D7
:1059C0002810090706D501684A68836B22F4004253
:1059D0001A434A6090F82810C90606D501688A68FB
:1059E000C36B22F480521A438A6090F8281089060B
:1059F00006D501688A68036C22F400521A438A6053
:105A000090F82810490611D501684A68436C22F4C1
:105A100080121A434A60416CB1F5801F06D10168BB
:105A20004A68836C22F4C0021A434A6090F8281036
:105A3000090606D501684A68C06C22F400220243B8
:105A40004A607047F8B500260446C0F88C60FDF740
:105A500081F80546206800686FF07E47000708D58A
:105A60002B4600224FF400112046009700F00AFC5C
:105A700060B92068006840070AD52B4600224FF421
:105A800080012046009700F0FDFB08B10320F8BD1F
:105A90002020C4F88400C4F8880044F86C6F00200B
:105AA0002675F8BD10B5806A0021A0F85E10A0F838
:105AB0005610FEF7D2FC10BD70B5846AD4F884008D
:105AC000D4F88850216889684FF00006090606D589
:105AD000212804D1A4F85660204600F04FF8206831
